:020000022000DC
:1070000000000420B9550A00F1550A00A5380A000D
:10701000F5550A00B1380A00B7380A000000000030
:1070200000000000000000000000000001E4060075
:10703000FD550A00000000009BE40600ABE40600DA
:10704000A9960A0015EF090003560A0003560A0024
:1070500003560A0003560A0003560A0003560A00A4
:1070600003560A0003560A0003560A0003560A0094
:1070700003560A003D980A0003560A00D9FB09008E
:1070800003560A0003560A0003560A0003560A0074
:1070900003560A0003560A0003560A0003560A0064
:1070A00003560A0003560A0003560A0003560A0054
:1070B00003560A0003560A0000000000000000000A
:1070C00003560A0003560A0003560A0003560A0034
:1070D00003560A0003560A0003560A0003560A0024
:1070E00003560A0003560A0003560A000000000077
:1070F0000000000003560A000000000003560A00CA
:1071000010B5054C237833B9044B13B10448AFF3E1
:1071100000800123237010BDF06C002000000000EF
:1071200064660C0008B5034B1BB103490348AFF379
:10713000008008BD00000000F46C002064660C00B4
:10714000154B002B08BF134B9D46A3F5803A002139
:107150008B460F461348144A121A88F0EFFD0F4B66
:10716000002B00D098470E4B002B00D098470020F2
:10717000002104000D000D48002802D00C487DF0CD
:1071800031F988F0B3FC2000290049F0E1F97DF0E5
:1071900026F900BF000008000000042000000000E5
:1071A000AD040700F06C0020E0940120E5430A00E4
:1071B0000000000030B5234B1C68236887B09B6833
:1071C00020469847054630B91F49204846F02EFD15
:1071D000284607B030BD23681D49DB6B2046984721
:1071E00023681C49DB6A2046984723681022DB6F1E
:1071F0000821204698471849164806F047FC1749C9
:10720000144806F043FC236812491B6D204698473A
:1072100018220021684688F091FD01231822694652
:107220000D4806F03DFA01220D490C4806F049FAD6
:10723000236820465B6D98470A49044846F0F6FCEF
:107240000120C6E764770B00713F0B00F09A002025
:10725000863F0B000C6D0020186D0020246D00206F
:10726000963F0B00993F0B00024B186803681B699F
:10727000184700BF64770B00F7B5154D154C16493C
:10728000164E284606F0E4FB2846154D15492246C1
:1072900000277DF0A2F818230097122212492846F1
:1072A00006F0E4F92846114D224631467DF095F866
:1072B0000097802312220E49284606F0D7F922466D
:1072C0003146284603B0BDE8F0407DF086B800BFE7
:1072D0000C6D002000600020D43E0B00E1D50200C0
:1072E000186D0020E5D90200F93E0B00246D002046
:1072F0001E3F0B0010B50B4B19680B6894B01B6F49
:1073000001A8984701A806F045FA044618B101A85B
:1073100006F060FA044601A806F0DFF9204614B032
:1073200010BD00BF64770B00F0B51C460D4B07463F
:107330001868036887B01B690E4615469847FFF723
:10734000D9FF68B10C9B04930D9B05931822012370
:1073500069460548009701960295039406F0A0F946
:1073600007B0F0BD64770B00186D0020F0B51C4627
:10737000274B0546186803688DB01B690F461646F3
:107380009847FFF7B7FF00283FD0224903A846F0EF
:10739000CDFD294603A846F079FE1F4946F082FE3E
:1073A00002220546394606A846F015FE06A92846DB
:1073B00046F06CFE194946F075FE0322054631463B
:1073C00009A846F008FE09A9284646F05FFE1449C0
:1073D00046F068FE214646F059FE124946F062FE2C
:1073E0000146684646F0D6FD09A846F054FD06A8B9
:1073F00046F051FD03A846F04EFD012200990A48CF
:1074000006F05FF9684646F046FD0DB0F0BD00BFDE
:1074100064770B00433F0B004E3F0B00583F0B00BF
:10742000643F0B006E3F0B00246D002008B5012166
:107430000B2046F075FF01210D2046F071FF012160
:107440000C2046F06DFF01210B2046F0A9FF012121
:107450000D2046F0A5FF01210C20BDE8084046F0B4
:107460009FBF000008B5FFF745FF38B146F0DEFECC
:10747000034B1B6898422CBF0020012008BD00BFB1
:10748000306D00202DE9F041324C86B080460D462B
:10749000204631491E46174646F0AEFB2F4903A849
:1074A00046F044FD414603A846F0F0FD2C4946F065
:1074B000F9FD0146204646F09AFB03A846F0EBFC96
:1074C000284903A846F032FD032229466846264D86
:1074D00046F081FD694603A846F0D8FD294646F0EE
:1074E000E1FD0146204646F082FB684646F0D3FCAB
:1074F00003A846F0D0FC1D4903A846F017FD03225F
:107500003946684646F067FD694603A846F0BEFD69
:10751000294646F0C7FD0146204646F068FB68460E
:1075200046F0B9FC03A846F0B6FC114903A846F0A2
:10753000FDFC314603A846F0A9FD0E4946F0B2FD18
:107540000146204646F068FB03A846F0A4FC06B0BE
:10755000BDE8F081F09A0020B23F0B00D23F0B0053
:10756000CE3F0B00DE3F0B00CF3F0B00F53F0B0083
:1075700008400B006E3F0B00F0B58BB004460D4683
:107580001646FFF7B7FE00284AD1B54F3B780121D8
:1075900083F001030B203B7046F002FF01210C2019
:1075A00046F0FEFE39780D2081F0010146F0F8FE2C
:1075B000AC49204646F0A5FD20B9AB49204646F02F
:1075C000A0FD30B3A74901A846F0B0FC01A904A86A
:1075D00046F0E0FCA54907A846F0A8FC07AB3246F8
:1075E000294604A8FFF74EFF07A846F054FC04A85C
:1075F00046F051FC46F01AFE044646F017FE001B0A
:10760000B0F5FA7F07D2FFF72FFE0A2046F02CFED6
:10761000F3E79749D7E701A846F03DFC0BB0F0BD72
:107620009349944F204646F06CFD002839D0012143
:107630000B2046F0B5FE00210D2046F0B1FE0121E1
:107640000C2046F0ADFE8C4904A846F06FFC8B4937
:1076500007A846F06BFC07AB3246294604A8FFF7A3
:1076600011FF07A846F017FC04A846F014FC824955
:1076700004A846F05BFC814907A846F057FC07AB1D
:107680003246294604A8FFF771FE07A846F003FC1E
:1076900004A846F000FC46F0C9FD00F57A70386099
:1076A000BCE77549204646F02CFD0028BFD128468E
:1076B00083F0AAFB68A3D3E9002383F06FFE0028C0
:1076C000B5D16F49204646F01CFD002868D16D49B0
:1076D000204646F016FD002862D16B49204646F050
:1076E00010FD002840F08F805E49204646F009FDDD
:1076F000002840F088805C49204646F002FD0028C2
:1077000040F081806149204646F0FBFC002840F0B3
:10771000CB805F49204646F0F4FC002840F0C4804E
:107720005C49204646F0EDFC002840F0BD805A49F7
:10773000204646F0E6FC0146002840F0B5800B20CC
:1077400046F02EFE01210D2046F02AFE01210C20DC
:1077500046F026FE214604A846F01CFC4F4907A827
:1077600046F0E4FB07AB3246294604A8FFF78AFE41
:1077700007A846F090FB04A846F08DFB474907A8F0
:1077800046F0D4FB204607AB32462946FFF7EEFD14
:1077900007A846F080FB46F049FD00F2DC507EE78A
:1077A00000210B2046F0FCFD00210D2046F0F8FDE5
:1077B00001210C2046F0F4FD314904A846F0B6FB47
:1077C000374907A846F0B2FB07AB3246294604A862
:1077D000FFF758FE07A846F05EFB04A846F05BFBE7
:1077E000274904A846F0A2FB2D4907A846F09EFBB6
:1077F00007AB3246294604A8FFF7B8FD07A846F0B4
:107800004AFB04A8C5E701210B2046F0C9FD002171
:107810000D2046F0C5FD00210C2046F0C1FD1A499F
:1078200004A846F083FB1F4907A846F07FFB07AB7F
:107830003246294604A8FFF725FE07A846F02BFB91
:1078400004A846F028FB104904A846F06FFB154930
:10785000CBE700BFAFF30080333333333333E33F41
:10786000346D002012400B0024400B0032400B000E
:107870001F400B00306D002067190C0054400B00B6
:107880005B400B0069400B0077400B009D400B00F4
:10789000B4400B00B9400B00BE400B00CA400B00C7
:1078A00084400B00A2400B0001210B2046F078FD24
:1078B00001210D2046F074FD00210C2046F070FDE2
:1078C0000C4904A846F032FB0B4907A846F02EFBF2
:1078D00007AB3246294604A8FFF7D4FD07A846F0B7
:1078E000DAFA04A846F0D7FA024904A846F01EFBCB
:1078F00001497AE79D400B00DF400B0008B50348C3
:107900000CF0ACFB003018BF012008BD366D002024
:10791000F8B58E000446851927480CF093FA2860C4
:1079200025480CF0AEFA371D2744386022480CF089
:10793000C7FA06F10807274438601F480CF0DFFA41
:1079400006F10C07274438601B480CF0F7FA06F1E3
:1079500010072744386018480CF00FFB06F1140795
:1079600027449FED167A38600C342B463444F0EEF1
:10797000006AB7EE006AFFEE005AF3EC017AB0EE4F
:10798000E75AB4EEE65AF1EE10FA0CDDF5EEC07AE5
:10799000F1EE10FAB4BFF0EE657AF0EE467A77EECB
:1079A000A77A43ED017A53ED017A67EE877AA34215
:1079B00043ED017AE1D1F8BD366D00200AE81C41A3
:1079C0006A22002101480CF051B900BF366D002039
:1079D00070470000012970B5DFED2E7A02D8C2EDA4
:1079E000007A70BD8D08034604462E4610348EB1D1
:1079F00014ED047A77EE877A14ED037A77EE877ABE
:107A000014ED027A77EE877A14ED017A013E77EE73
:107A1000877AEBE700EB051001F0030600EB860622
:107A20000446B44204D0B4EC017A77EE877AF8E7E2
:107A300007EE101AB8EE477AC7EE876ADFED157ABF
:107A40001033CDB113ED046A36EE666A013DE6EE01
:107A5000067A13ED036A36EE666AE6EE067A13EDF1
:107A6000026A36EE666AE6EE067A13ED016A36EED3
:107A7000666AE6EE067AE3E7844206D0B0EC016A75
:107A800036EE666AE6EE067AF6E7C7EE876AC2ED7C
:107A9000006AA6E70000000010B50446D0E9120114
:107AA00010F5FA704FF47A724FF0000341F10001C3
:107AB00083F04AFD6063D4E9140110F5FA704FF4C5
:107AC0007A724FF0000341F1000183F03DFDA063A5
:107AD000D4E9180110F5FA704FF47A724FF00003F0
:107AE00041F1000183F030FD2064D4E9160110F566
:107AF000FA704FF47A724FF0000341F1000183F005
:107B000023FDE06310BD036808681847012A03D00D
:107B1000022A03D0002070470160FBE70B68036076
:107B2000F8E7012A03D0022A03D000207047016041
:107B3000FBE70B680360F8E7F0B4D0E9014706689B
:107B40007D10FF0706EB050044BF75592C59A4466C
:107B5000F0BC6047704710B50446006818B1237B3D
:107B60000BB114F01DFD204610BD086814F018BDBF
:107B70001FB5ADF80010ADF802200190ADF8081067
:107B8000ADF80A20039002AA10EE101A68460CF015
:107B90006FFB05B05DF804FB0B6803604B68436046
:107BA0008B688360704708B500EB8101920018462E
:107BB00088F09CF8002008BD1FB50190039168462D
:107BC00002A9ADF80030ADF80220ADF80820ADF8FC
:107BD0000A300CF05EFB05B05DF804FB000000000D
:107BE0002DE9F04F2DED048B95B0B0EE409A079043
:107BF000F0EE609A08914FEA610800230193079B19
:107C0000019A5B68934240F26581079B1B68099368
:107C1000079B9B680A9313460A9A19EE900A5343EE
:107C20000B9383F0F1F8AEA3D3E9002383F044F97A
:107C3000044619EE100A0D4683F0E6F802460B469C
:107C40002046294683F062FA84F020F883F02CFC69
:107C500083F0DAF80B460246CDE9040183F02CF9F3
:107C600083F022FC042108EE100A404614F096FC32
:107C700004210290404614F091FC042103904046F8
:107C800014F08CFC04210690404614F087FC04217B
:107C90000C90404614F082FC04210D90404614F0F4
:107CA0007DFCDDE902BA069B109011934FF00009AC
:107CB000F7EE008AC84572DC0B9A099B03EB82043D
:107CC0000A9B1344099A02EB83030E930E9B9C427A
:107CD00000F0EB80029B0A93069B04930D9D039B8F
:107CE000DDF84090DDF830B009934FF0000AD04540
:107CF00040F3D980099B99ED006AF3EC016A95ED98
:107D0000007A0993049BF3EC017A67EE867A049378
:107D1000E6EE877A0A9B94ED007A77EE877A0AF18D
:107D2000010ACBED007AB3EC017A17EE900A8DEDE3
:107D30000B7A0A9383F068F8064655F8040B0F4651
:107D400083F062F802460B4682F000FF02460B46C3
:107D50003046394682F0F8FE064659F8040B0F46C5
:107D600083F052F802460B463046394682F0EEFE6A
:107D700006460B980F4683F047F80B4602463946F5
:107D8000304683F099F883F08FFB206055F8043C6F
:107D900049F8043C5BF8043B45F8043CA7E7484637
:107DA00083F020F802460B4682F0D0FE00224E4BB4
:107DB00082F0CCFE4AA3D3E9002383F07DF8044689
:107DC00008980D4683F00EF802460B4682F0BEFE80
:107DD00002460B462046294683F098F983F00CFFB3
:107DE000064618EE100A0F4683F00EF8DDE904236C
:107DF000CDE90E011046194682F0A8FE04460D4654
:107E00003046394683F050FB82F0FEFF02460B46B7
:107E10002046294683F050F802460B4606460F4698
:107E2000DDE90E0182F092FE00222F4B82F08EFEE1
:107E300083F03AFB07EE900AC8EEA77A09F1010930
:107E4000EBEC017A82F0E0FF78EEC87A044617EE98
:107E5000900A0D4682F0D8FF02460B4682F076FE6D
:107E600022462B4683F052F983F01EFB32464AF835
:107E7000040B3B46DDE90E0182F066FE00221A4B40
:107E800082F064FE01F10043139312902B462246C8
:107E9000DDE9120183F03AF983F006FB119B43F808
:107EA000040B119306E7043410E7029814F078FBF2
:107EB000039814F075FB069814F072FB0C9814F0FC
:107EC0006FFB0D9814F06CFB109814F069FB019B8C
:107ED000013393E6002015B0BDEC048BBDE8F08FB4
:107EE000182D4454FB2109400000F03F0068096848
:107EF00012681B6810B5C4682CB94FF4FD720449B0
:107F000004487BF081FE2468A446BDE81040604729
:107F1000DC6E0B00516F0B0008B528B9064B074A01
:107F200007486B2187F044FA30F8023CC01ABDE8DC
:107F3000084014F035BB00BF2B940B00916F0B0071
:107F400050580B002DE9F041044610460E461546E8
:107F50001F4643F0B3FF804678B135B1284643F061
:107F6000E7FDAC2128467CF075FC0B48414614F037
:107F7000E9FA6FF00200BDE8F08114F0DDFA001BB1
:107F800061EB0601C7E9000114F0D4FA831C14BFA9
:107F900000206FF00100EEE725530B00F7B5054612
:107FA0000E46002400276B68A3421BD9A9682B68E2
:107FB00001FB04F001AA03EB8000FFF70BFDDDEDF0
:107FC000017AF5EEC07AF1EE10FA09DB17EE900AAD
:107FD00084F010FC336803EB840301341860E2E79B
:107FE0003846F7E7002003B0F0BD08B114F0D8BA66
:107FF000704710B4D0E90040A4465DF8044B6047D8
:10800000F7B5531E03EBD3735F1004460D468DED99
:10801000000ACDED010A0B469F424FEAC30617DD69
:10802000591C4B00581E04EB011104EBC00C91EDE0
:10803000017ADCED017AB4EE677AF1EE10FAC8BF8E
:10804000034604EBC30103C9264486E80300E3E7C3
:10805000D1070DD4023A02EBD272B3EB620F07D113
:108060005B00013304EBC30103C9A21982E80300DA
:108070005A1E02EBD272009FDDED017A52109D4232
:1080800004EBC30612DA04EBC20393ED017AB4EEFB
:10809000E77AF1EE10FA09DD93E80300531E86E853
:1080A000030003EBD37113464A10E8E73760C6EDCF
:1080B000017A03B0F0BD17B403460C4692E8030002
:1080C0000DF1080C0CE9030093E803009DED000A94
:1080D000DDED010A82E80300E21AD2100021184601
:1080E00003B05DF8044BFFF78BBF10B1800014F0B4
:1080F00053BA7047F8B5551A06460C461746284637
:1081000001D014F049FA4319B36030600346A74226
:1081100004D054F8042B43F8042BF8E7284470608B
:10812000F8BD10B5D0ED017A046803461A46083B45
:1081300093ED017AF4EEC77AF1EE10FA06DD93E8DA
:10814000030003F1080282E80300EFE71460C2EDC8
:10815000017A10BDF8B588422DED028B04460E461B
:108160001FD0083086421CD090ED018AD4ED017AF0
:10817000B4EEE78AF1EE10FA00F108050EDD844254
:1081800055F8087C05D0021B214604F1080087F051
:10819000BBFD276084ED018A2846E3E7FFF7C1FFB6
:1081A000FAE7BDEC028BF8BDF0B5C0689E6E059C89
:1081B00090F854C0002106F1040E8C4528D956F8D9
:1081C00031501DB35EF83170BA4200D0F7B9B0F843
:1081D000626008330022964203F108031BD9296824
:1081E00094ED007A895607EE901AF8EEE77A416E20
:1081F00077EEC77A94ED017A51F8221043F8081C03
:1082000067EE877A013243ED017AE4E70131D4E782
:108210006FF02000F0BD0020FCE730B503461446A7
:10822000994204D053F8045B44F8045BF8E7081A59
:10823000104430BD2DE9F7430446164698460D46D6
:1082400000F108072B1B802B40F393804FEAE309D2
:1082500006BBA9F1020676106F4604EBC60393E84D
:10826000030087E803004A469DED000ADDED010AA0
:1082700031462046FFF7C4FE0EB1013EEDE72B1B51
:10828000082BA5F1080574DD2A4629462046FFF78C
:1082900012FFF4E71B1104EBC303D4ED036A93ED63
:1082A000017A55ED017AD4F800C06268F4EEC76A2D
:1082B000F1EE10FA06F1FF361ADDB4EEE77AF1EED0
:1082C00010FA07DD93E8030084E80300C3F800C058
:1082D0005A6019E0F4EEE76AF1EE10FA0DDD15E9E7
:1082E000030084E8030045F808CC45F8042C0BE0B3
:1082F000F4EEE76AF1EE10FA29DD97E8030084E86E
:108300000300C4F808C0E26004F110022B4652EDED
:10831000017A94ED017AF4EEC77AF1EE10FAA2F147
:10832000080924DCA3F108010B460839D1ED036AE2
:10833000B4EEE67AF1EE10FAF6DC4B450DD829469C
:10834000434632464846FFF775FF4D467AE7B4EE9E
:10835000E77AF1EE10FAB5DDC1E793E8030052F8D1
:1083600008CC89E80300C3F800C0C3ED017A0832E5
:10837000CDE703B0BDE8F0832DE9F04F2DED048B80
:1083800095B0F0EE408A0790B0EE609A08914FEAFF
:10839000610800230193079B019A5B68934240F2B6
:1083A0006581079B1B680993079B9B680A9313468B
:1083B0000A9A19EE100A53430B9382F025FDAEA3DF
:1083C000D3E9002382F078FD044618EE900A0D46AA
:1083D00082F01AFD02460B462046294682F096FEA0
:1083E00083F054FC83F060F882F00EFD0B460246E9
:1083F000CDE9040182F060FD83F056F8042108EE17
:10840000100A404614F0CAF804210290404614F0C5
:10841000C5F804210390404614F0C0F804210690EA
:10842000404614F0BBF804210C90404614F0B6F816
:1084300004210D90404614F0B1F8DDE902BA069B24
:10844000109011934FF00009F7EE009AC84572DCC6
:108450000B9A099B03EB82040A9B1344099A02EBD3
:1084600083030E930E9B9C4200F0EB80029B0A93C9
:10847000069B04930D9D039BDDF84090DDF830B022
:1084800009934FF0000AD04540F3D980099BD9EDFC
:10849000006AB3EC017AD5ED007A0993049BB3EC42
:1084A000018A28EE268A0493A7EE278A0A9BD4ED38
:1084B000007A38EE278A0AF1010A8BED008AF3EC84
:1084C000017A55F8040BCDED0B7A0A9382F09CFCEF
:1084D00002460B4682F03AFB064618EE100A0F469B
:1084E00082F092FC02460B463046394682F02EFB63
:1084F000064659F8040B0F4682F086FC02460B46EE
:108500003046394682F022FB06460B980F4682F031
:108510007BFC0B4602463946304682F0CDFC82F0A9
:10852000C3FF206055F8043C49F8043C5BF8043B69
:1085300045F8043CA7E7484682F054FC02460B4647
:1085400082F004FB00224E4B82F000FB4AA3D3E9E9
:10855000002382F0B1FC044608980D4682F042FCEC
:1085600002460B4682F0F2FA02460B4620462946A6
:1085700082F0CCFD83F040FB064618EE100A0F4651
:1085800082F042FCDDE90423CDE90E0110461946D4
:1085900082F0DCFA04460D463046394682F084FF0C
:1085A00082F032FC02460B462046294682F084FCCB
:1085B00002460B4606460F46DDE90E0182F0C6FA7A
:1085C00000222F4B82F0C2FA82F06EFF07EE900A73
:1085D000C8EE277A09F10109EBEC017A82F014FC6C
:1085E00079EEC87A044617EE900A0D4682F00CFC2C
:1085F00002460B4682F0AAFA22462B4682F086FDFE
:1086000082F052FF32464AF8040B3B46DDE90E0188
:1086100082F09AFA00221A4B82F098FA01F1004394
:10862000139312902B462246DDE9120182F06EFD73
:1086300082F03AFF119B43F8040B119306E70434D0
:1086400010E7029813F0ACFF039813F0A9FF069807
:1086500013F0A6FF0C9813F0A3FF0D9813F0A0FFE2
:10866000109813F09DFF019B013393E6002015B095
:10867000BDEC048BBDE8F08F182D4454FB2109405C
:108680000000F03F10B58368044613B10322014691
:108690009847204610BDCB68C3600BB15B68184794
:1086A0007047C3680BB19B6818477047022A70B5C2
:1086B000044607D0032A0FD0012A01D10B680360BA
:1086C000002070BD10200E687CF096F831460546FB
:1086D000FFF7E1FF2560F3E70468002CF0D02046A7
:1086E000FFF7DFFF102120467CF0B4F8E8E770B513
:1086F00004460E46154633B1036000232373C4E9D4
:108700000165204670BD02FB01F08000012113F0DD
:1087100045FF01232060F1E7DFED067A00EB8101E0
:10872000884204D0B0EC017A77EE877AF8E717EE4A
:10873000900A7047000000002DE9F04385B005461F
:108740000023684689461646FFF7D1FF009971B3AA
:108750001FFA89F71FFA86F843463A462846FFF77C
:108760002BFA0446D8B11349134813F0EBFE4346E5
:108770003A4600992846FFF71FFA01460F4813F0C2
:10878000E1FE43463A4600992846FFF715FA0446AB
:108790006846FFF7E0F9204605B0BDE8F08306FB28
:1087A00009F292000099284687F0A0FAF0E7044CFD
:1087B000EEE700BF84590B0088590B008D590B0060
:1087C00016FCFFFF10B52DED028B08EE101AF7EE28
:1087D000007AB4EE678AF1EE10FA044621D000EE7A
:1087E000101A028981880068FFF7C2F9C8B10F49E1
:1087F0000F4813F0A7FEB0EE480A2289A18820682E
:10880000FFF7B6F901460B4813F09CFEB0EE480A9C
:10881000BDEC028B2289A1882068BDE81040FFF7DB
:10882000A7B9BDEC028B002010BD00BF84590B001E
:1088300088590B008D590B007FB542684B689A42EE
:1088400005460E4643D18B68012B40D100246B684E
:10885000A3423ED9AA682B6802FB04F103EB810313
:1088600068460121FFF743FF009A52B3336803EBD8
:108870008403D3ED007AF5EE407AF1EE10FA1BD0C6
:10888000DDE90101B0F5803F01FB00F302D2B1F553
:10889000803F0AD302EB830393420DD092ED007A1E
:1088A00037EE677AA2EC017AF6E7F1EE677A17EE17
:1088B000901A10460BF0D0FC6846FFF74CF90134D3
:1088C000C5E76846FFF747F9034804B070BD0348A1
:1088D000FBE70020F9E700BF16FCFFFF14FCFFFFD9
:1088E000F0B50D4691B000287AD0036A1C68002CC0
:1088F00076D02368002B73D0A268002A70D022693A
:10890000002A6DD06668002E6AD0E768002F67D015
:108910006269002A64D04968012906D0374813F0FB
:1089200011FE6FF0170011B0F0BDA96840688142D8
:1089300005D00A460146324813F004FEF1E78E42A4
:1089400002D032462F48F7E7B74203D03A463146C5
:108950002D48F1E7012239466846FFF7C8FEA368B3
:10896000A968012204A8FFF7C2FEA9682B680122AA
:1089700008A8FFF7BCFE694608A8FFF75DFF30BBFB
:10898000099A059B9A4222D1069B012B1FD10446CE
:10899000099BA34227D90A9A089B02FB04F103EB27
:1089A00081030CA80121FFF7A2FE0C9B63B1049B7D
:1089B00003EB84030CA81968FFF704FF20B90CA887
:1089C000FFF7C9F80134E3E70CA8FFF7C4F808A8DB
:1089D000FFF7C1F804A8FFF7BEF86846FFF7BBF839
:1089E0006FF01D009FE708A8FFF7B5F804A8FFF790
:1089F000B2F86846FFF7AFF8002094E7FE510B008D
:108A000052520B0098520B00DE520B0042684B682A
:108A10009A4273B505460E4616D18B68012B13D1C9
:108A200000246B68A34212D9A9682B6801FB04F0EB
:108A300001AA03EB80000BF05DFC3368019A03EBA5
:108A4000840301341A60ECE7024802B070BD0020D4
:108A5000FBE700BF14FCFFFF42684B689A4273B506
:108A600005460E4616D18B68012B13D100246B6886
:108A7000A34212D9A9682B6801FB04F001AA03EBF9
:108A800080000BF01FFC3368019A03EB8403013470
:108A90001A60ECE7024802B070BD0020FBE700BF9F
:108AA00014FCFFFF1FB500234168044601226846FD
:108AB000FFF71DFE009B8BB169462046FFF7CCFFF8
:108AC00028B920466946FFF7B7FE044600B1044CBA
:108AD0006846FFF740F8204604B010BD014CF7E7A8
:108AE00014FCFFFF16FCFFFF2DE9F04142684B68C4
:108AF0002DED028B9A4282B0074688467DD18B6865
:108B0000012B7AD1DFED418A00267B68B3427AD906
:108B1000BC683D689FED3D8A04FB06F305EB8305C9
:108B20006A46214628460BF0CDFBA3089DED007A4E
:108B30002A461946103209B352ED047A77EEC77A05
:108B4000013967EEA76AA7EEA68A52ED037A77EE9F
:108B5000C77A67EEA76AA7EEA68A52ED027A77EE89
:108B6000C77A67EEA76AA7EEA68A52ED017A77EE7A
:108B7000C77A67EEA76AA7EEA68ADBE705EB0313C1
:108B800004F0030203EB8202934208D0F3EC017A73
:108B900077EEC77A67EEA76AA7EEA68AF4E701AA7E
:108BA00021462846FEF716FF9DED017A67EE077A0B
:108BB00067EE877AF5EEC07AF1EE10FA09DAF0EE98
:108BC000687AD8F8003003EB8603C3ED007A0136EB
:108BD0009BE717EE900A83F00DFE07EE100AB5EE44
:108BE000407AF1EE10FAEAD007EE904AF8EE677A92
:108BF000C8EE276AC6EE877AE3E7054802B0BDEC07
:108C0000028BBDE8F0810020F8E700BF0000000003
:108C100014FCFFFF42684B689A422DE9F341074676
:108C2000884673D18B68012B70D100267B68B342D4
:108C300070D9BC683D6804FB06F305EB83056A4602
:108C4000214628460BF03EFBA3089DED007ADFEDA0
:108C5000325A2A461946103209B352ED047A77EE99
:108C6000C77A013967EEA77AE7EEA75A52ED037A81
:108C700077EEC77A67EEA77AE7EEA75A52ED027A47
:108C800077EEC77A67EEA77AE7EEA75A52ED017A38
:108C900077EEC77A67EEA77AE7EEA75ADBE705EB30
:108CA000031304F0030203EB8202934208D0F3ECB7
:108CB000017A77EEC77A67EEA77AE7EEA75AF4E76C
:108CC00001AA21462846FEF785FE9DED017AD8F8D7
:108CD000003027EE077A03EB8603B5EE407AF1EE1B
:108CE00010FA1BBF07EE904AF8EE677AF8EE087AA2
:108CF000C5EEA76A06F101061EBFC6EE877AB0EE82
:108D0000087A77EEC77AC3ED007A8FE7034802B09E
:108D1000BDE8F0810020FAE70000000014FCFFFF2E
:108D20002DE9F0418AB01646109C620801329A4241
:108D300080460D466ED10023224601216846FFF78A
:108D4000D6FC0098002863D0A54228BF2546AF0076
:108D50003A46414686F0CAFF0098621B0021920005
:108D6000384486F0EBFF202C009928D0402C53D0BB
:108D7000802C51D0B4F5807F4ED0B4F5007F4BD01D
:108D8000B4F5806F48D0B4F5006F45D0B4F5805F7E
:108D900042D0224B224A117879B1002111701F4A2A
:108DA0002049214893422DD113F0CCFB23464FF4A8
:108DB000805220211D4813F0C5FB1D4C1BE01023E1
:108DC000ADF810301B4BADF820409A89ADF81C204F
:108DD0009A685B680593184B069209933246002304
:108DE00004A80CF029F97368C6F880300023C6F88F
:108DF0008430736000246846FEF7ADFE20460AB05A
:108E0000BDE8F08113F09EFB0C4813F09BFBD4E708
:108E10000B4CF0E70B4CF1E70B4BBBE705FCFFFFFE
:108E200004610020EB580B0088590B00F0580B0030
:108E30000AFCFFFF7C7F0B00FC7E0B004E590B00F1
:108E400016FCFFFF11FCFFFF10FCFFFF10B507EE43
:108E5000900A06EE901A12B30BB3012A02D11860E1
:108E6000002010BD501E06EE100A36EEE77AF8EE2E
:108E7000465A1C4687EE256A002107EE101AB8EE06
:108E8000C77AF0EE675AE7EE065A01318842E4EC01
:108E9000015AF2D803EB820343ED016AE0E701488F
:108EA000DFE700BF10FCFFFF074B00EB81018842AA
:108EB00009D0D0ED007AF5EE407AF1EE10FA08BF55
:108EC00003600430F3E77047FFE6DB2E07EE102A5D
:108ED00000EB8101002388420BD0D0ED007AF0EE48
:108EE000E77AF4EEC77AF1EE10FA48BF0360043077
:108EF000F1E7704770B50024054626462B6893F8C5
:108F00003C30A3420BD96B6853F8240028B10368A6
:108F1000DB6898476B6843F824600134EEE770BD66
:108F200010B50446FFF7E6FF606813F039FB2046F2
:108F300010BD00002DE9F0471D464368012B88B0A5
:108F400007460E46144640F09A804B68012B40F0CD
:108F500096809368012B40F0928053686A68013BC9
:108F60009A4240F08C80D5F80880B8F1010F40F0AB
:108F700086808168B368994240F081800023414631
:108F80006846FFF7B4FB009B002B76D06268002395
:108F9000013A414604A8FFF7AAFB049800285FD0D5
:108FA0006268D6F80880DDF800C0013A4FF0000E84
:108FB000B7EE007A1FFA8EF9C84535D933684FEA03
:108FC00089094B44D3ED007A4FF0000A1FFA8AF367
:108FD000934223D221689B001944D1ED006AF4EE3C
:108FE000E76AF1EE10FA1CD8D1ED016AF4EEE76AF7
:108FF000F1EE10FA15DD39680CEB030A4944DAED9D
:10900000007AD1ED006A77EEA67A0344CAED007AC1
:10901000D3ED007A77EE877AC3ED007A0EF1010E78
:10902000C8E70AF1010AD1E700240026A3B293425F
:1090300021D29B00C118D1ED007A2968F5EE407A63
:10904000F1EE10FA19441BBF6344D3ED006A0E60C1
:1090500086EEA77A04F1010418BF81ED007AE5E7F6
:10906000084C04A8FEF777FD6846FEF774FD20461D
:1090700008B0BDE8F0870024F3E7024CF4E7024CA7
:10908000F5E700BF16FCFFFF14FCFFFF2DE9F047DA
:109090002DED028B08EE903A43688EB0012B054609
:1090A00088461446BDF8606040F0C5804B68012BCF
:1090B00040F0C18077088B6807F101094B4540F00B
:1090C000BA805168012940F0B6809368994540F014
:1090D000B2800368002B00F0B080D8F80020002A8E
:1090E00000F0AB802268002A00F0A780826802A806
:1090F000FFF7FDFA029B002B00F09B80AD68AE42AB
:1091000013D9ADB200232A46012106A8FFF7EFFAD2
:10911000069B002B00F08B8003EB8502B7EE008AE4
:10912000934206D0A3EC018AFAE738BF049635468D
:10913000E8E788EE287A2268002307EE906AF8EEC6
:10914000E77A67EE877A88EE277A99B2013307EEDD
:10915000901AF8EE677A99B267EE877A8F42E2EC5E
:10916000017AF2D20122002311460AA8FFF7BFFAC2
:109170000A9B002B59D00AA902A8FFF76DFC0446F0
:10918000B8B90AA902A8FFF757FB044688B901211C
:109190004FEAC90013F002FA0096024682464B4697
:1091A00004990298FFF7BCFD044688B1504613F0BD
:1091B000F7F90AA8FEF7CFFC06A8FEF7CCFC02A838
:1091C000FEF7C9FC20460EB0BDEC028BBDE8F0876F
:1091D00007EE905AF8EEE77AD8F8001067EEA87A12
:1091E0000AF10403C8EE276A0246002590B28742BE
:1091F00002F1010203F1080353ED027A13ED037A41
:1092000043F8085C67EEA77AE7EE077A67EEA67A7E
:1092100018BF77EEA77A43ED037A53F80C0C41F8A8
:10922000040B90B28742E1D2C0E7054CC1E7044C81
:10923000C2E7034CC3E7034CC4E7014CC2E700BFDD
:1092400016FCFFFF14FCFFFF10B5D0E900431B1B09
:109250009B10013B07EE903A07EE101AF8EE677A82
:1092600067EE877A17EE900A81F0CEFD0022044B5C
:1092700081F06CFC82F0F8F804EB8000006810BD0F
:109280000000E03F30B5DDE90354D5ED007AB7EEDC
:10929000007A87EE276A01EB8202914226D0F0EC39
:1092A000016A93ED007AD4ED007AE7EE267A27EE94
:1092B000867A81ED007AD5ED017A67EEC77A93ED73
:1092C000017AE7EE267A94ED017A77EE877AC4ED9B
:1092D000007A95ED027AF1EC017A67EEC77A93EDA8
:1092E000027AE7EE267AC4ED017AD6E730BD0000B7
:1092F00021F00203012B13B5044601D00A290CD139
:109300000023C4E900330191A36002AA01A9204609
:10931000FEF7F0FE204602B010BD1E294FF00003FC
:1093200006D1C0E900330E4A8360A2F10801EFE7DD
:10933000642904D1C0E9003383600A4AF5E7B1F536
:109340007A7F06D1084A8360C0E90033A2F10C019C
:10935000DEE7064B064A07484FF4037186F028F80B
:109360008C500B0094500B00A0500B00727C0B0033
:1093700062700B001D5A0B002DE9F34781460D4624
:1093800013F0DAF804460E46B9F1000F49D0D9F8C7
:109390000C800027D8F84C30BB4221D9D9F81030C6
:1093A0000BB153F82730D8F85020019302EB471245
:1093B000394693690093D2F810A0D2692B464846EB
:1093C000D047824650B113F0B7F8001B61EB06019D
:1093D000C5E91601504602B0BDE8F0870137D9E76C
:1093E0000027BA4698F85430BB4210D9AB6E53F8F8
:1093F0003790B9F1000F08D04846FEF7ACFB48465D
:1094000013F0CEF8AB6E43F837A00137EAE713F05C
:1094100093F8001B61EB0601C5E916014FF0000A45
:10942000D8E76FF00A0AD5E72DE9F0410F46054667
:10943000F8B1C66800244FF0240896F83C30A342E7
:109440001AD9336C08FB04F213441B6A0BB90134BC
:10945000F3E719680029FAD05B69002BF7D0E968B7
:10946000086C57F83410104498470028EFD0BDE836
:10947000F0816FF00A00FAE70020F8E72DE9F04FDD
:10948000012ADDE9095B0FD1023D5A460BEB83034C
:1094900093422BD0016835F8024F096801EB840133
:1094A000096842F8041BF3E700263446B446B2428A
:1094B0001CD0D0F800E0DEE901710BEB840803EB6F
:1094C000040901FB07C74C4513D035F814A0BA4571
:1094D0000FD2DEF80010AAEB0C0A01EB8A0A013465
:1094E000DAF800A048F804ABA342ECD80020BDE8AD
:1094F000F08F0136BC46DAE72DE9F04F2DED028BF7
:1095000089B098469DF85C30169D06930E4613F080
:1095100013F80746A8890791800013F03DF8044628
:1095200048B9514813F00EF86FF00A0009B0BDECCD
:10953000028BBDE8F08F0190AB680093AB89149A61
:1095400041463046FFF79AFFB5F80CA0D5E9062151
:1095500004EB8A00234683420CD0B1EC017AD3EDB0
:10956000007AF2EC016A77EEC77A87EEA67AA3EC6E
:10957000017AF0E7AB8A2D699FED3C8ADFED3C8AEA
:10958000039304354FF00008039B43453CD918EE84
:10959000909AA3460026B24521D955F8043CBBEC6D
:1095A000017A03EB8603D3ED007A77EE677A013612
:1095B00017EE900A81F028FC02460B4681F07CFCF5
:1095C000CDE90401484681F01FFC02460B46DDE967
:1095D000040181F0BBFA81F067FF8146DBE7484672
:1095E00083F008F92B46D3ED007A07EE100A77EEE8
:1095F000677A0835B4EE678AF1EE10FAC8BFB0EEAC
:10960000678A08F10108BFE712F096FF069B05463E
:109610000E4653B1C11B174812F094FF18EE100A02
:1096200012F0AAFF144812F08DFF079BE81B66EBAF
:109630000301159B4FF47A72C3E91801002381F0EE
:1096400083FF159B186483ED0A8A0C4812F07AFF99
:1096500018EE100A12F090FF074812F073FF204630
:1096600012F09EFF002061E7BF500B0000007A441B
:1096700000000000F2500B00C7510C0011510B000C
:109680002DE9F74F4FF00009019014464F464E4622
:109690000C9B99457BD0019B21781D68D5E901324F
:1096A000032902FB03FA3DD009290FD001295FD11C
:1096B000B9000022924563D02B6803EB820301328C
:1096C000186863680B4404311860F3E74FF0000B2F
:1096D000D5E9012353435B4507EB0B0852D92B68AF
:1096E000D4ED037A03EB8B0393ED007AC7EE277A70
:1096F0000BF1010B17EE900A82F052FD07EE900A73
:10970000FDEEE77A2269636817EE900A10447F281D
:10971000A8BF7F206FF07F029042B8BF104603F8C9
:109720000800D5E74FF0000BD5E9012353435B4513
:1097300007EB0B0826D92B68D4ED037A03EB8B03D8
:1097400093ED007AC7EE277A0BF1010B17EE900A22
:1097500082F026FD07EE900AFDEEE77A2269636843
:1097600017EE900A104480F3080003F80800DBE7C6
:109770000E4812F0E7FE6FF00C0003B0BDE8F08F6A
:1097800007EB0A08564409F10109474680E7A16939
:10979000B6EB910F08D0B14206D00548324612F020
:1097A000D1FE6FF01700E8E70020E6E726510B0036
:1097B0004A510B00D1E9013270B50C4601780329FA
:1097C00002FB03F231D0092916D0012946D1816963
:1097D000B2EB910F09D00029B8BF0331891022489C
:1097E00012F0B0FE6FF0170005E00A4641682068ED
:1097F00086F07CFA002070BD81699142EFD1002291
:109800009142F7D02368066990ED037A03EB820555
:1098100043689B569B1B07EE903AF8EEE77A0132BD
:1098200067EE877AC5ED007AEAE781699142D6D181
:1098300000229142DED02368066990ED037A03EBA3
:10984000820543689B5C9B1B07EE903AF8EEE77A33
:10985000013267EE877AC5ED007AEAE7034812F035
:1098600071FE6FF00D00C6E797510B00D9510B0048
:109870002DE9FF4705460E461746984600244FF04F
:109880001809E86890F84430A34212D9836CCDF8E7
:109890000C8009FB043331469A68CDE901721A7DC8
:1098A0000092D3F804A01B692246D04740B9013486
:1098B000E7E712F03FFE831C14BF00206FF00100A9
:1098C00004B0BDE8F0872DE9F0414FF000080546EF
:1098D0001746C0E90088C0E90288C0F810800C462D
:1098E00051B101F11F067609B600304612F054FE60
:1098F000C5E9000806442E61002C2346B8BF04F1D8
:109900001F036242286802F01F0204F01F044FEA9E
:10991000631358BF544200EB8303002CBCBF2034B8
:10992000043BC5E9023428B12A693978121A494240
:1099300086F004FA2846BDE8F0812DE9F04143683D
:10994000012B86B0044642D0816801293FD059439B
:1099500000238DF803300DF103026B4601A84D1E64
:10996000FFF7B1FF01221646D4F800C00CEB8203CA
:109970001F681346A168B3FBF1F001FB1033616867
:1099800001FB03030CEB83010198D1F800800F6009
:109990004FEA531E03F01F0106FA01F750F82E108C
:1099A0009A4241EA070140F82E104746E2D1590990
:1099B00003F01F0250F8211006FA02F20A420DD0FD
:1099C000AB4203F101020BD308B112F0E9FDD4E977
:1099D0000132C4E9012306B0BDE8F0811A46C3E7AD
:1099E0001346E4E738B500230446C0E9003383603A
:1099F00008460D46FEF779FBC4E9000000EB85033D
:109A0000A36000221DB140F8042B013DFAE763601A
:109A1000204638BD1FB501938368CDE902210BB9FB
:109A200081F08AF8C46801AB02AA03A9A04704B078
:109A300010BD00002DE9F04F2DED028B804685B062
:109A40008B4650693F49D2F808A09FED3F8ADFED71
:109A50003F8A87F07BF900240028D8F810700CBFEB
:109A60004FF001094FF003092646D8F81030A34201
:109A700065D9B7F5806F3D4628BF4FF48065002358
:109A8000524629466846FEF732FE009B43B96846B7
:109A9000FEF761F82E4805B0BDEC028BBDE8F08FF3
:109AA0002A4621464046FFF7B5FF009ADFED295AC6
:109AB0009FED295A02EB8501914239D0F2EC017AEF
:109AC000FCEEE77AB9F1030F17EE903AC3F30740C3
:109AD00007EE900AF8EEE77AC3F3072087EE886A6C
:109AE000DBB207EE900AF8EEE77A06F1010087EEA6
:109AF000887A08BFF01C07EE903AF8EEE77A18BFB4
:109B000027EE287AC7EE886ADBF8003003EB86037D
:109B1000064615BFA6EE257A83ED006AA6EE857A85
:109B200083ED017A0CBFC3ED026A83ED007AC3E7CF
:109B300068467F1BFEF70FF804F5806495E7002068
:109B4000A9E700BFA5580B0000007F43A245163FC0
:109B500016FCFFFF8716993ED578E93D2DE9F047C1
:109B600005469846D0E90230066AB1FBF3F106FBE0
:109B700001F4B2FBF3F24FF0000906FB0246A642E5
:109B800019D908EB890A0027AA68BA4209EB07032A
:109B90000CD96B682868D95D012253462144FFF730
:109BA00039FF0AF1040A38B90137EDE7EA68126AA9
:109BB00099461444E3E70020BDE8F08710B5044659
:109BC000006808B112F0ECFC204610BD38B50468FE
:109BD00005462CB12046FDF7BEFF204612F0E0FC02
:109BE000284638BD002238B50B680A600568036056
:109BF00004462DB12846FDF7AEFF284612F0D0FCF2
:109C0000204638BD07B5826801910AB980F094FFFB
:109C1000C36801A9984703B05DF804FB016910B55A
:109C2000044609B1FFF7EEFF002323612046FEF74B
:109C300029FD204610BD10B504460068FEF7D5F991
:109C4000204610BD2DE9F04F87B0DDE9106490ED9E
:109C5000007AD4F810C01546074689469846002277
:109C6000944512D06368D1005818D0ED007A67EEA1
:109C7000877A0431C0ED007A0B44D3ED007A67EEA9
:109C8000877A0132C3ED007AEAE702AA494603A8BF
:109C9000FFF7A8FE2369DDF80CA02BB9224B234A5D
:109CA0008821234885F084FBD4E90032019203F136
:109CB0000C02009238464A465146FFF7E3FA012764
:109CC0004FF0180B2369BB4212D9626821680BFB65
:109CD00007F302EBC702019203F10C020A4400925F
:109CE0000B444A4651465046FFF7CCFA0137E9E7A4
:109CF000711E4944B1FBF6F141450BD8039BB600F8
:109D00002A4605EB81018A4208D0186842F8040B04
:109D10003344F8E7074B084AB621C2E703A8FFF728
:109D20008AFF07B0BDE8F08FA1590B0026700B0029
:109D3000B2590B00005A0B00BA6F0B002DE9F04F1F
:109D4000032A8BB005468846164608D00A2A36D024
:109D5000284B294A29484FF40E7185F029FBDFF87A
:109D6000A0B0DFF8A0A0AB680024013B3344A146BB
:109D7000B3FBF6F302936B68A34236D9AF682B6846
:109D8000D8F80820674303EB8707D8F80030624310
:109D900003EB820208200392CDE905B9CDE90799CA
:109DA000FEF7A3F9039A069000F1200308935146A9
:109DB000834209D051F804CB40F804CBF8E7DFF830
:109DC00048B0DFF848A0CEE707930423099305AB1A
:109DD000CDE90063A968D8F808303846FFF732FFAC
:109DE00006A8FFF728FF0134C5E702980BB0BDE8CD
:109DF000F08F00BFD05A0B00A4700B001D5A0B004F
:109E0000A460002084600020246000200460002002
:109E10002DE9F84FD0E9008AAAEB0804E41014BF3A
:109E200023460123E418074689469346A1EB08051B
:109E300019D2B4F1005F16D2C4B1E00012F0ACFB4D
:109E400006469BE80300731983E80300002308EB30
:109E5000030291450CD092E8030006EB030C8CE85A
:109E600003000833F3E76FF06044E6E72646E8E7CF
:109E700025F0070508353544002309EB0302924518
:109E800007D092E8030005EB030C8CE803000833CD
:109E9000F3E7AAEB09094D44B8F1000F02D04046A0
:109EA00012F07EFB06EBC404C7E90065BC60BDE8A8
:109EB000F88F0A46D0E901318B4210B5044606D02E
:109EC00092E8030083E803000833636010BD19467D
:109ED000FFF79EFFFAE713B50B460446D0E90001F1
:109EE0006A4682E8030093E8030084E8030092E8EE
:109EF000030083E8030002B010BD38B505460C46E8
:109F0000FFF7E9FFAB68A268AA60A360E268EB68AC
:109F1000EA60E36038BD000030B589B004466846A9
:109F2000FEF7B9FB0023102006937AF065FC694622
:109F30000546FEF7B0FB094B07932146084B0693F5
:109F400004A80495FFF7D9FF04A8FEF79BFB684619
:109F5000FEF7A7FB204609B030BD00BFED7E020032
:109F6000AD86020030B5D0E90232116A05688B4235
:109F700089B01AD02A69B2FBF1F2534303620C4B49
:109F800007930C4B029300230393019001AB00F164
:109F9000100593E8070004AC84E807002146284632
:109FA000FFF7BAFF2046FEF77CFB284609B030BD1C
:109FB0006C500B005D9B020030B587B00B4B0593D6
:109FC0000B4B1161CDE900306B4693E8030002AC06
:109FD00084E803000025214610460495FFF79CFF06
:109FE0002046FEF75EFB284607B030BD78500B00D8
:109FF000A77B020010B5D0E90034E41AA3106FF07B
:10A000004044E01A884202D2104680F092FD994204
:10A0100038BF1946591804D2A14228BF2146084624
:10A0200010BD2046FCE700002DE9F047D0E90143D0
:10A030009C420646894605D00B6844F8043B4460C0
:10A04000BDE8F087114A0121FFF7D4FFD6F8008060
:10A050008246FEF74AF8A4EB08050544D9F800301B
:10A060002B602146074602464046FEF7D6F8021D01
:10A070002046FEF7D2F804464046FDF7B6FFC6E993
:10A08000007407EB8A07B760DAE700BF776F0B0051
:10A09000D0E900232DE9F047A3EB02084FEAA8041A
:10A0A000A14205460F462DD982680C1BD21AB4EB8B
:10A0B000A20F4FF0000908D803EB840443F8049B77
:10A0C0009C42FBD16C60BDE8F087124A2146FFF745
:10A0D00091FF8246FEF709F806468044013C48F8A5
:10A0E000049BFBD13246D5E90001FEF796F82868BB
:10A0F000FDF77BFF06EB87072E6006EB8A066F6095
:10A10000AE60E0E7DFD202EB81079F4218BF4760F5
:10A11000D9E700BF5D6F0B0084B038B504AC84E8AC
:10A120000F00DDE90C5404212846FFF7B1FF04219C
:10A130002046FFF7ADFF2B68216804AA03F1100049
:10A14000D46843F8044BD46941F8044B8342A2F12C
:10A150000402F5D1BDE8384004B0704784B038B58A
:10A1600004AC84E80F00DDE9105406212846FFF70F
:10A170008FFF06212046FFF78BFF2B68216804AA7A
:10A1800003F11800546943F8044BD46A41F8044BB6
:10A190008342A2F10402F5D1BDE8384004B0704713
:10A1A00084B038B504AC84E80F00DDE9145408210C
:10A1B0002846FFF76DFF08212046FFF769FF2B684F
:10A1C000216804AA03F12000D46943F8044BD46B3E
:10A1D00041F8044B8342A2F10402F5D1BDE83840B6
:10A1E00004B0704784B038B504AC84E80F00DDE9F2
:10A1F00018540A212846FFF74BFF0A212046FFF793
:10A2000047FF2B68216804AA03F12800546A43F829
:10A21000044BD46C41F8044B8342A2F10402F5D103
:10A22000BDE8384004B0704784B038B504AC84E869
:10A230000F00DDE91C540C212846FFF729FF0C21F3
:10A240002046FFF725FF2B68216804AA03F13000A0
:10A25000D46A43F8044BD46D41F8044B8342A2F115
:10A260000402F5D1BDE8384004B0704784B038B579
:10A2700004AC84E80F00DDE920540E212846FFF7E6
:10A2800007FF0E212046FFF703FF2B68216804AA71
:10A2900003F13800546B43F8044BD46E41F8044B7F
:10A2A0008342A2F10402F5D1BDE8384004B0704702
:10A2B00084B038B504AC84E80F00DDE924541021E3
:10A2C0002846FFF7E5FE10212046FFF7E1FE2B6848
:10A2D000216804AA03F14000D46B43F8044BD46F07
:10A2E00041F8044B8342A2F10402F5D1BDE83840A5
:10A2F00004B0704784B038B504AC84E80F00DDE9E1
:10A30000285412212846FFF7C3FE12212046FFF7EA
:10A31000BFFE2B68216804AA03F14800546C43F87F
:10A32000044BD2F88C4041F8044B8342A2F1040262
:10A33000F4D1BDE8384004B0704784B038B504ACFF
:10A3400084E80F00DDE92C5414212846FFF7A0FE15
:10A3500014212046FFF79CFE2B68216804AA03F114
:10A360005000D46C43F8044BD2F89C4041F8044BA5
:10A370008342A2F10402F4D1BDE8384004B0704732
:10A3800070B50C46A6B099490646154686F0DEFC27
:10A3900088B9974ECDE9084506F110050FCD6C46FA
:10A3A0000FC495E80F0084E80F0096E80F00FFF750
:10A3B000D5FE26B070BD8F49304686F0C7FCA0B9E7
:10A3C0008D4ECDE9104506F110050FCD6C460FC43A
:10A3D0000FCD0FC40FCD0FC495E80F0084E80F0018
:10A3E00096E80F00FFF7FEFEE3E78449304686F06B
:10A3F000ADFC08B9824ECDE78249304686F0A6FC16
:10A4000008B9814EDDE78149304686F09FFC68B986
:10A410007F4E06F1100160226846CDE9184585F0AF
:10A4200065FC96E80F00FFF721FFC2E77949304647
:10A4300086F08CFC68B9784E06F1100180226846DF
:10A44000CDE9204585F052FC96E80F00FFF752FF5A
:10A45000AFE77249304686F079FC60B9704E06F17C
:10A4600010030FCBCDE904458DE80F0096E80F00EF
:10A47000FFF752FE9DE76B49304686F067FC90B9C6
:10A48000694ECDE90C4506F110050FCD6C460FC4A1
:10A490000FCD0FC495E80F0084E80F0096E80F0079
:10A4A000FFF77EFE85E76149304686F04FFC68B9CC
:10A4B0005F4E06F1100150226846CDE9144585F043
:10A4C00015FC96E80F00FFF7AFFE72E759493046DA
:10A4D00086F03CFC68B9584E06F1100170226846BF
:10A4E000CDE91C4585F002FC96E80F00FFF7E0FE81
:10A4F0005FE75249304686F029FC68B9504E06F1B4
:10A50000100190226846CDE9244585F0EFFB96E8DE
:10A510000F00FFF712FF4CE74A49304686F016FC61
:10A5200008B9494E4DE74949304686F00FFC08B955
:10A53000474EBEE74749304686F008FC08B9464E0C
:10A540007AE74649304686F001FC08B9444E21E7D7
:10A550004449304686F0FAFB08B9434EA9E743491F
:10A56000304686F0F3FB08B9414E65E74149304675
:10A5700086F0ECFB08B9404E71E74049304686F062
:10A58000E5FB08B93E4E05E73E49304686F0DEFB66
:10A5900008B93D4E75E73D49304686F0D7FB08B90E
:10A5A0003B4E0EE73B49304686F0D0FB08B93A4EA9
:10A5B0007FE73A49304686F0C9FB08B9384E28E7AC
:10A5C0003849304686F0C2FB08B9374E84E7374930
:10A5D000304686F0BBFB08B9354E2DE7354930468D
:10A5E00086F0B4FB002869D1334E88E7EA5A0B00A5
:10A5F0008C640B00F25A0B00BC640B00FA5A0B007F
:10A600000C650B00025B0B003C650B000A5B0B004A
:10A610008C650B00125B0B00FC650B001A5B0B00DA
:10A620008C660B00225B0B00AC660B002A5B0B00F8
:10A63000EC660B00325B0B004C670B003A5B0B00C7
:10A64000CC670B00425B0B006C680B004A5B0B0095
:10A65000BC680B00525B0B001C690B005A5B0B00C3
:10A66000CC620B00605B0B00FC620B00665B0B00B6
:10A670005C630B006C5B0B00FC5C0B00705B0B0005
:10A680001C5D0B00745B0B004C5D0B00785B0B00DA
:10A690008C5D0B007C5B0B00DC5D0B00805B0B00BA
:10A6A0003C5E0B00845B0B00AC5E0B00885B0B0018
:10A6B0002C5F0B008C5B0B00BC5F0B005E493046CF
:10A6C00086F044FB80B902212046FFF7E1FC02211D
:10A6D0002846FFF7DDFC21682A68584B0B601360A1
:10A6E0004B60574B536064E65649304686F02EFB6C
:10A6F00008B9554E4EE65549304686F027FB08B955
:10A70000534E5EE65349304686F020FB08B9524E60
:10A7100040E65249304686F019FB08B9504E50E6E3
:10A720005049304686F012FB08B94F4E71E64F494A
:10A73000304686F00BFB08B94D4E7DE64D4930465C
:10A7400086F004FB08B94C4E89E64C49304686F049
:10A75000FDFA08B94A4E94E64A49304686F0F6FAC0
:10A7600008B9494EA5E64949304686F0EFFA08B9DE
:10A77000474EB1E64749304686F0E8FA08B9464EFA
:10A78000BDE64649304686F0E1FA08B9444E18E67F
:10A790004449304686F0DAFA08B9434E89E643491F
:10A7A000304686F0D3FA08B9414E45E64149304675
:10A7B00086F0CCFA08B9404E51E64049304686F062
:10A7C000C5FA08B93E4EE5E53E49304686F0BEFA88
:10A7D00008B93D4E55E63D49304686F0B7FA08B90E
:10A7E0003B4EEEE53B49304686F0B0FA08B93A4EAA
:10A7F0005FE63A49304686F0A9FA08B9384E08E6CD
:10A800003849304686F0A2FA08B9374E64E637492F
:10A81000304686F09BFA08B9354E0DE6354930468C
:10A8200086F094FA08B9344E69E6344B344A354818
:10A830008C2184F0BDFD00BF915B0B00F304353F1C
:10A84000F30435BF965B0B00AC690B009E5B0B00FD
:10A85000DC690B00A65B0B002C6A0B00AE5B0B00E7
:10A860005C6A0B00B65B0B00AC6A0B00BE5B0B00B6
:10A870001C6B0B00C65B0B00AC6B0B00CE5B0B00C4
:10A88000CC6B0B00D65B0B000C6C0B00DE5B0B0083
:10A890006C6C0B00E65B0B00EC6C0B00EE5B0B00D2
:10A8A0008C6D0B00F65B0B00DC6D0B00FE5B0B0090
:10A8B0003C6E0B00065C0B00FC5C0B000B5C0B00A1
:10A8C0001C5D0B00105C0B005C600B00155C0B004A
:10A8D0009C600B001A5C0B00EC600B001F5C0B0013
:10A8E0004C610B00245C0B00BC610B00295C0B006D
:10A8F0003C620B002E5C0B00EC630B00727C0B00C7
:10A90000F9700B00345C0B002DE9F04F85B0DDE9E8
:10A910000EA699460AF1FF33132B83460D46904647
:10A92000109F00D829B93F4B3F4A4048D32184F0BB
:10A930003FFD02396A4601EB4A0101A80AF1804451
:10A94000FFF750F8023C019AA4000BEB04011046FB
:10A950005B46594509D1101901EB85018B4209D09D
:10A9600053F804CB40F804CBF8E751F804CD40F895
:10A9700004CBEEE705F1804102395144083402EB83
:10A980008102191B53F8040D42F8040B8B42F9D1D4
:10A99000013D55446D0829463046FFF779FB38469E
:10A9A0002946FFF775FB019B00201C44A84225D0D7
:10A9B0003168DFED1F7A4FEA800E714442469C46B3
:10A9C000FCEC016AB2EC017A6445E6EE877AF7D1D5
:10A9D0003A68C1ED007ADFED167A7244CC4619462A
:10A9E000F1EC016ABCEC017A8C42E6EE877AF7D191
:10A9F000C2ED007A013008330834D7E7D7E9000107
:10AA0000091A0C4A8910FEF761FAD6E90001091A01
:10AA1000084A8910FEF75AFA01A8FFF70CF905B0A9
:10AA2000BDE8F08FDE5C0B0018730B00345C0B008C
:10AA30000000000095BFD633F8B50D461F46D0E99B
:10AA4000001399422DED028B0446164611D00A1DC3
:10AA5000084693429446D0ED007A0BD09CED007AE4
:10AA6000B4EE677AF1EE10FA02F1040248BF6046D4
:10AA7000EFE70846994290ED008A10D00A1D9342F4
:10AA80001046D1ED007A0AD090ED007AB4EE677AE4
:10AA9000F1EE10FA02F10402C8BF0146EFE7D1ED72
:10AAA000007A07EE105A77EEC87AB8EE477A304649
:10AAB0002946C7EE878AFFF7EBFAD4E90034681E0F
:10AAC000F7EE006A9C4216D0B3EC017A326837EE9A
:10AAD000487AC7EE287AFCEEE77A17EE901A8D4294
:10AAE00098BF014602EB8101D1ED007A77EEA67A9C
:10AAF000C1ED007AE6E7A7B1D6E90041091B89104C
:10AB00002046FDF709FE04EB850507EE100A2046F6
:10AB1000854206D0D0ED006AC6EE877AE0EC017A75
:10AB2000F6E7BDEC028BF8BD30B52DED028B85B09C
:10AB3000002401230D4601AA6421CDE901440394B8
:10AB4000FFF77AFF00230093DDE90132D21AB4EB5C
:10AB5000A20F16D203EB840393ED008AB5EEC08AF0
:10AB6000F1EE10FA0BDD18EE100A81F0C5FDDDEDF7
:10AB7000007A07EE100AE8EE477ACDED007A01344C
:10AB8000E2E769462846FFF74FFA01A8FFF753F8B6
:10AB900005B0BDEC028B30BD2DE9F047D0E9014393
:10ABA0009C420646894605D00B6844F8043B446045
:10ABB000BDE8F087114A0121FFF71CFAD6F80080A2
:10ABC0008246FDF792FAA4EB08050544D9F8003057
:10ABD0002B602146074602464046FDF71EFB021D3C
:10ABE0002046FDF71AFB04464046FDF7FEF9C6E98C
:10ABF000007407EB8A07B760DAE700BF776F0B00D6
:10AC000070B52DED028B08EE102AD0E900239B1AB7
:10AC10000C4682B005469B10012600219E420FD2B1
:10AC20001046D2ED017A90ED007A67EE877A043211
:10AC3000F5EEC07AF1EE10FA48BF01310136EDE7CA
:10AC400007EE901AB8EE677A07EE903AF8EEE77AD8
:10AC500001A9C7EE276A2046CDED016AFFF79CFFE8
:10AC6000D5E900239B1A9B1001200021834213D9B0
:10AC70001546D5ED017A95ED007A77EEC87A37EE74
:10AC8000487A043267EE877A0130F5EEC07AF1EE49
:10AC900010FA48BF0131E9E707EE901AB8EE677A7B
:10ACA00007EE903AF8EEE77A01A9C7EE276A204648
:10ACB000CDED016AFFF770FF02B0BDEC028B70BDF5
:10ACC00038B504460D460023836001462846FFF749
:10ACD00002F9AB68A268AA60A360E268EB68EA6068
:10ACE0002046E36038BD00002DE9F04F93B00746E1
:10ACF0000C46924699461D9D11F01EFC3E69C4E922
:10AD00000001F068002855D00121113011F046FCF7
:10AD100000284FD000F1110424F00F04201A564BE4
:10AD200024F8020C0593554B089305A9544B07933F
:10AD30000DA8FFF7C5FF29692C6100231193002995
:10AD400041D10DA909A8FFF7BBFF294609A8FFF7C4
:10AD5000C2F80B9BAA68AB600C9B0B9209A8EA682F
:10AD6000EB600C92FDF78EFC0DA8FEF757FF05A8CF
:10AD7000FDF788FC434A73681168434DDFF824816E
:10AD80008B4224D001212970136019685A185B582E
:10AD9000C8F80020D31A198804294ED9998811B10E
:10ADA000515803294BD00322384811F0CBFB6FF0E8
:10ADB000020005E03648F16811F0C4FB6FF00500B1
:10ADC00013B0BDE8F08F2846FEF71CFFB9E72A78DC
:10ADD000002ADAD1DFF8D0B09BF80030BFF35B8FE8
:10ADE000DB070ED4584679F00BFB50B1294813F01D
:10ADF00047FF584679F026FB274A2849254879F02D
:10AE0000ECFAAC2079F0F8FC0023CDE90133F368CB
:10AE10000093204AD8F800102346834640F012FEE3
:10AE20001C9B0121C3F800B0584640F07DFF04464A
:10AE300040B11B4811F086FBB9E70021B3E70023BE
:10AE40002B70C7E70146584640F064FECAF8000080
:10AE50003B7BE6B2B34208D9BB685846995D40F0E7
:10AE60003FFE013449F82600F2E728780023002845
:10AE7000A6D02B701846A3E7197F0200077B0200BB
:10AE80000D7B0200248800208864002066530B009C
:10AE900039530B001872002000600020557B02001F
:10AEA000AD530B00147200205C6D00202DE9F04FB3
:10AEB00095B0DDE91F7A05469AF80C004FF0000BBB
:10AEC0008000144699460E46CDF81CB011F064FB84
:10AED000049011F031FB5A4B0B930DF12C08594B98
:10AEE0000E93CDE90801584B0D9341460FA8FFF78B
:10AEF000E7FE4046CDF84CB0FDF7C4FB0FABCDE903
:10AF0000008307AA049B08A95046FFF7EDFE804680
:10AF1000002840F0818095F84430029395F83C3049
:10AF200001931E9B0093079AB96E4B463046FEF77D
:10AF3000A7FB8046814600286ED107F150030B9A8B
:10AF4000DDE90801FCF7FEFFE40080469AF80C30CA
:10AF50004B4568D9049B53F82950AB6853F8040B50
:10AF600000220126904204DD53F8041B01324E43B7
:10AF7000F8E72978032917D0092915D0012946D1E6
:10AF80001020059111F008FB0023324605998346F5
:10AF9000FDF7ADFBBB6EAA6943F804B06968DBF846
:10AFA000000084F0A3FE12E09AF814301020C3B120
:10AFB00011F0F2FA0023012132468346FDF797FB98
:10AFC000BB6E594643F804B02846FEF7F3FBBB6E50
:10AFD000DAF8042023444A445A6009F1010908348C
:10AFE000B4E711F0D9FA01218346304611F0D6FAC0
:10AFF0004FF00103CBF800008BF80C300123CBE9B4
:10B000000136BB6EAA6943F804B06968C9E70F4806
:10B0100011F098FA6FF00D080FA8FEF7FFFD4046FB
:10B0200015B0BDE8F08F0B9C34B1204640F080FD98
:10B03000AC21204679F00EFC049811F0B1FAEBE750
:10B04000197F0200077B02000D7B0200D9510B0023
:10B050002DE9F04F2DED0E8B9DB01E46349B0992CD
:10B060000546187B0027800088460E9711F094FA59
:10B07000C04B139317ACC04B039013A916932046F3
:10B08000BE4B1593FFF71CFE13A81B97FDF7FAFAAA
:10B090000FAB019400930EAA039B349810A9FFF7FD
:10B0A00023FE0446002859D10E9B1B78092B02D0A1
:10B0B000032B40F0678211F03FFA0E9B5B6802930E
:10B0C000CDE90A01A869002B51D1012111F066FADE
:10B0D000012302900E9A06932B6C92ED048ADB6892
:10B0E000D2ED038AAA6C5869D468A5499A68079278
:10B0F00085F02CFE00280CBF0123032308930025B4
:10B10000D8F810309FED9F9A9FED9FBA0493B8EE48
:10B11000C88AA946D8F81030AB4240F2A081049BFF
:10B12000079AB3F5806F28BF4FF4806305930599A4
:10B13000002313A8FDF7DBFA139BD3B913A8FCF780
:10B140000AFD9249924811F0FDF96FF00404029B48
:10B1500023B1069B13B1029811F022FA17A8FEF74B
:10B160005DFD20461DB0BDEC0E8BBDE8F08F0023C9
:10B17000B0E7059ADFED87BA9FED87CADFED87DA82
:10B180009FED87DADFED879A9FED87AADFED87AA2B
:10B1900029464046FEF73EFC0027059B9F4200F0F3
:10B1A0005581139B03EB8703D3ED007A029BFCEEE2
:10B1B000E77A03EB090A17EE901A089B080A032B9B
:10B1C000C1F3074307EE103AC3B206EE903ACBB292
:10B1D00009F1010B07EE903A40F09D80029B029A24
:10B1E000F4EE498A5B44F1EE10FA09F1020B5A447D
:10B1F00009F1030B26D19FED6E6AB4EE468AF1EE9B
:10B2000010FA1FD1F4B9B8EEC77AF8EEE66A37EE55
:10B210006D7A76EEED6ABDEEC77AF8EEE77A17EE54
:10B22000101A77EEED7ABDEEE67A8AF80010FDEEA0
:10B23000E77A17EE101A197017EE903A137001376B
:10B24000D946AAE7C0B207EE900AC9B2B8EEE7EA5B
:10B2500007EE901AB8EEC77AF8EEE7CABCBB87EEE5
:10B260000D7A8EEE0DEACCEE8DCACDE90C32C7EE2A
:10B27000287A17EE900A80F093FF07EE900A78EE96
:10B28000277AFDEEE77A17EE901ACEEE287A8AF842
:10B29000001017EE900A80F083FF07EE900A78EE18
:10B2A000277A0C9BFDEEE77A17EE901ACCEEA87A7F
:10B2B000197017EE900A80F073FF07EE900A78EE8F
:10B2C000277A0D9AFDEEE77A17EE903AB6E7022C50
:10B2D00018D1C7EE0D7ADFED376A77EEE97A87EE9F
:10B2E0008A7ACEEE0D7A77EEEA7A87EEA6EACCEE8F
:10B2F0008D7ADFED316A77EEE67ADFED306AC7EE00
:10B30000A6CAB2E7042C02BF37EE6D7A3EEE6DEAB4
:10B310007CEEEDCAA9E7F4EE498AF1EE10FA4FD1BE
:10B320009FED236AB4EE468AF1EE10FA48D1002C64
:10B3300046D116EE902A49F24563534317EE102A80
:10B3400044F68B4101FB023317EE902A41F62F5150
:10B3500001FB02331B1407EE903AF8EEE77A77EE22
:10B36000ED7AFDEEE77A17EE903A03F307038AF8D9
:10B37000003064E7197F0200077B02000D7B0200AA
:10B38000A5580B008180803BA245163F16FCFFFFAD
:10B39000C7740B008716993ED578E93D000000433D
:10B3A00000007F43EC51F83EFA7E6A3ED578E93ED4
:10B3B000000000C34260653E3BDFCF3E6666663EEE
:10B3C000B8EEC77AF8EEE66AF8EEE77AD4B987EE17
:10B3D0000D7AC6EE8D6AC7EE8D7A66EE8B6AE7EE61
:10B3E0002B6AE7EE8C6AC6EEA87A17EE900A80F018
:10B3F000D7FE07EE900A78EE277AFDEEE77A17EE91
:10B40000903AB4E7022C18D187EE0D6A5FED175A17
:10B4100036EE696A86EE0A7A86EE8D6A36EE6A6ADA
:10B42000C6EE256A87EE8D6A5FED1D7A5FED1D5AC7
:10B4300036EE676AC6EE257ACFE7042C02BF37EEF8
:10B440006D7A76EEED6A77EEED7AC6E7049B13A887
:10B45000DB1B049305F58065FCF77DFB5AE611F0D4
:10B4600069F8831C00F08C8011F066F80A9BC01A02
:10B470000B9B61EB0301C6E9120111F05DF806F1C7
:10B4800050030F9ACDE91001FCF75CFD099B0446BF
:10B490004FEAC3084FF000094FF0010A349B1B7BB1
:10B4A0004B4560D9039B53F82950AB6853F8040B04
:10B4B00000220127904204DD53F8041B01324F4360
:10B4C000F8E72978032917D0092915D0012944D193
:10B4D0001020049111F060F800233A460499834645
:10B4E000FDF705F9B36EAA6943F808B06968DBF89F
:10B4F000000084F0FBFB12E0349B1B7D1020CBB1DD
:10B5000011F04AF8002301213A468346FDF7EFF88F
:10B51000B36E594643F808B02846FEF74BF9349A03
:10B52000B36E526843444A445A6009F1010908F174
:10B530000808B3E711F030F801218346384611F0CE
:10B540002DF8CBF80000B36E8BF80CA0CBE901A767
:10B55000AA6943F808B06968CBE70C4810F0F2FF1D
:10B560006FF00D04F3E50F9D35B1284640F0E0FA89
:10B57000AC21284679F06EF9039811F011F8E6E550
:10B580000446E4E56FF00804E8E500BFD9510B007C
:10B5900007B50193836C9B68009313460022FFF765
:10B5A00057FD03B05DF804FB2DE9F04F9FB0164640
:10B5B000089109930546002800F0C081C368002B5C
:10B5C00000F0BC81002A00F0B981002900F0B681AA
:10B5D00070220021304684F0B1FBEB6893F85440B0
:10B5E000E400204610F0D8FF22460021B0661390F8
:10B5F00084F0A4FBE868836C90F85520D3E90141FE
:10B600000E2A90F83C3005932AD844F6A403D34080
:10B61000DA0725D590F8613013BB9B4B9C421FD1B4
:10B620004B7BEBB1059B012B1AD1036C9A68974BAE
:10B630009A4215D1099B08993246FFF7A9FF0746A0
:10B6400038B931462846FDF797FE07463046FCF7E5
:10B6500023FA13A8FEF7B2FA38461FB0BDE8F08F00
:10B66000059BDC00204610F097FF8046149040B9FF
:10B67000874810F067FF6FF0070714A8FEF79EFADF
:10B68000E7E72246002184F059FB059B981C8000C7
:10B6900079F0C6F804230360059B43600346083332
:10B6A0000493DDE904230390002113F1FF3302D357
:10B6B00042F8041BF9E7049B0BB97648D9E710F070
:10B6C0003BFFCDE91001049B079300270697EB6829
:10B6D00093F83C20BA4240F2CC8024227A431446AC
:10B6E0001A6C131912590C92D3E901A20F92DA685D
:10B6F0000A921A690E9210205A69DB690D920B9317
:10B7000010F04AFF0023524601218346FCF7EFFF69
:10B7100015A90798CDF854B0FEF764FA15A8FEF7FE
:10B7200055FA079A52F8043B07924FEA8709A3B9E2
:10B730003946594810F006FF6FF00707039B586819
:10B74000049B03EB80052E46049BB34200F0E78088
:10B75000043E3046FEF73AFAF6E71A68C2B93946AF
:10B760004D4810F0EFFE039B5D68049B03EB8505DD
:10B77000049B9D4204D0043D2846FEF727FAF7E7D4
:10B78000039B596802318900184679F067F8D3E7BE
:10B7900048F8373008F104030C9A43F83720069B29
:10B7A00053440693EB6806999A69914205D93B4840
:10B7B00010F0C8FE6FF00407C0E7089A15920E9AC1
:10B7C00016920D9A15A8CDE9172300231B93FEF7B7
:10B7D000C9FB0B9B8246002B35D0314B1B784BB9F4
:10B7E0003049314810F0AEFE304810F0ABFE2C4A24
:10B7F00001231370D5F804B05BF8093043B9296808
:10B800000A6C896B2244D369D06898474BF80900C9
:10B810006B6853F8090038B303680196EA68926BC5
:10B820000092D3F8049058F837200A9B5146C84735
:10B8300088B101461E4810F085FE6FF0040719A874
:10B84000FCF720FF7AE7EB680A9A9B6B58F83710F1
:10B850000F9CA047ECE710F06DFE831C07D019A8E1
:10B86000FCF710FF013732E76FF00A07E7E70746FA
:10B87000E5E741462846FDF7D7FD0746E0B101461A
:10B880000C4810F05FFE59E7ADAE0200359A020099
:10B89000EC740B0019750B0049750B0055740B0007
:10B8A00010720020EB580B0088590B00A3730B009B
:10B8B000C7740B000D740B0010F03EFE109BC01AF5
:10B8C000119B61EB0301099BC6E91201002B3BD0E0
:10B8D000716B2848DFF8A89010F034FEBA46264F66
:10B8E000059B9A452DD258F83A30ABB14FF0000B7A
:10B8F00058F83A309A685A450BD91B6803EB8B030A
:10B900000BF1010B186810F037FE384610F01AFEE4
:10B91000EEE7484610F016FE0AF1010AE0E7039B45
:10B92000E81A08386FF00304800804FB0050083858
:10B9300041680231890078F091FF9EE66FF01507AB
:10B940008AE60E4810F0FEFD099B32464146284625
:10B95000FDF78EFF074600287FF4F0AE31462846FB
:10B96000FDF70AFD074600287FF4E8AE3046FCF7F5
:10B9700093F8E3E641740B00B8640C00C8750B0043
:10B98000C7510C0013460A4601460148FFF70CBE9A
:10B990002C8800202DE9F0432DED028BA7B00F4637
:10B9A00016461D4605AA00234FF496710793FEF72D
:10B9B00003FB044648B1002405A8FCF763FE2046BB
:10B9C00027B0BDEC028BBDE8F083014670220AA8C7
:10B9D00084F0B4F922460AA905A8FFF7D3FF00288E
:10B9E000E9D19FED2A8A0AAB2246D3ED037AF4EE21
:10B9F000C87AF1EE10FAC8BF144602F10102C8BFBE
:10BA0000B0EE678A042A03F10803EED120492148E9
:10BA1000DDF85080013442F0EFF826AB03EBC404AC
:10BA20001C4854F8701C42F0E7F81B49194842F0D2
:10BA3000E3F818EE100A7FF0E7F94FF00309024629
:10BA40000B46CDF80090134842F016FA13491148FE
:10BA500042F0D2F840467FF0D7F9CDF80090024688
:10BA60000B460C4842F00AFA54F8701C02A842F047
:10BA70005DFA02A9384642F097FA02A842F00BFAA2
:10BA8000012486ED008AC5F8008095E700000000DB
:10BA9000A0500B00F09A0020A8500B00B2500B00F1
:10BAA0002DE9F0432C4C89B0002544F62067A146CF
:10BAB0004FF0060842F0CCFB2946C6194846FBF772
:10BAC00027FFB5FBF8F10A22B1FBF2F302FB1313D7
:10BAD000063513B1B5F5967F09D1636901932369E2
:10BAE0000093A268E36861682068FBF71DFC42F0E0
:10BAF000AFFB864204D942F0ABFB301A42F0B6FBF2
:10BB0000B5F5967F04F11804D4D1FBF7ADFBFBF734
:10BB1000A9FCE8B9114905A842F008FA00230393EB
:10BB2000049303AA04AB05A90B48FFF733FF60B1E8
:10BB3000FBF79AFB049A039905A8FBF71DFD05A8DE
:10BB400042F0A9F909B0BDE8F083FBF78DFBF6E7F9
:10BB5000FBF78AFBF6E700BF606D0020C8510C00C0
:10BB60002DE9F0478CB08146DDF850804FEA58054A
:10BB700001359D428A46174645D1EE00304610F009
:10BB80000BFD224B0393224B06930446214B059356
:10BB900003A907A8FFF794F803A80B94FCF772FD1C
:10BBA00054B91D481D4D10F0CDFC07A8FEF736F81E
:10BBB00028460CB0BDE8F0872B46CDF80080224621
:10BBC00051464846FDF7ACF805460028EDD126441D
:10BBD0004FF00008D4ED017A94ED007A67EEA77A71
:10BBE000E7EE077AF5EEC07AF1EE10FA09DB17EE10
:10BBF000900A80F0FFFD0834A64247F8040BE9D113
:10BC0000D3E74046F7E7064DD2E700BFA1C50300E2
:10BC1000077B02000D7B020071590B0016FCFFFF31
:10BC200011FCFFFF2DE9F341BDF8206075080135D7
:10BC30009D4214462CD10096FFF792FF804618BB18
:10BC400007EE906AF8EE677A04EB850517EE900A26
:10BC50007FF0DAF802460B4600200F497FF056FAD3
:10BC600006460F46D4ED007A67EEA77A17EE900AE3
:10BC70007FF0CAF832463B467FF01EF97FF014FC95
:10BC800044F8040BA542EDD1404602B0BDE8F08176
:10BC9000DFF80880F8E700BF0000F03F14FCFFFF6A
:10BCA0002DE9F04F2DED028B95B09A46219E9DF81F
:10BCB000883008937308059303F1010B3F4B0E93F3
:10BCC00081463F4B0D9388464FEA8B050BA90FA881
:10BCD00004920B950024FEF7F3FF043D0BA8139488
:10BCE000FCF7D0FC09EB0503464503930ED904216C
:10BCF000584610F053FC139913900746002943D07F
:10BD00000FA8FDF77FFF9FED2F8A04E0039B93EDC3
:10BD1000008A4F460124209B0498A3EB0A0292005C
:10BD2000002184F00BF807EB8A030793B3B20025D8
:10BD30000993A84536DDAB1943450693099B00934B
:10BD400088BFA8EB05015B4698BF31463A4609EB30
:10BD50008500FFF767FF034628BB049B0798514601
:10BD6000209A914212D20246D2ED007A93ED007AE7
:10BD7000B4EEE77AF1EE10FA58BF1A4604301268B2
:10BD800043F8042B0131EBE70C46BCE7089B3BB1C1
:10BD900014B1039B83ED008A059B00241D44C8E772
:10BDA000069DC6E700230FA80393FDF737FF039B0B
:10BDB000184615B0BDEC028BBDE8F08F6B7B02001E
:10BDC000237B0200000000002DE9F04F2DED048BD5
:10BDD0009FB008EE103A9DF8B4309DF8B040804610
:10BDE0008A46154600266BB1FDF7A7FDE968404677
:10BDF000FCF7E8FC30B1814648461FB0BDEC048B2F
:10BE0000BDE8F08F6F699C49384684F09FFF68B9A0
:10BE1000E96949B1C9B2D5ED060AB0EE480A404613
:10BE2000FCF7AAFA0028E6D1002609E09349384633
:10BE300084F08CFF002840F02D81E96929B90126A2
:10BE4000002C00F03481012428E1C9B2D5ED060AA6
:10BE5000B0EE480A4046FBF7C3FE0028EFD0CAE721
:10BE60007EF074FE7FF000FB441C012747E16C6A02
:10BE700004EBD47464100134F7E7D6ED007ADFEDFB
:10BE8000806AF5EE407AF1EE10FA08BFF0EE487ADB
:10BE90004B46CA44F0EE665A9A450AD0B3EC016AA2
:10BEA00026EE067A27EE067A75EE875AE6EE076AE0
:10BEB000F2E79DED056AAB88696AB8EEC66A27EEBF
:10BEC000A77A85EE865A042B06F10C0A27EE277A0C
:10BED000C5EE075A67EE877AC6ED015AC6EE865A56
:10BEE00085EEA77AF0EE087A77EE677AC6ED027AE9
:10BEF00040F09F8001EBD1714FEA610A0AF1010A1B
:10BF00001AAA51460BA8FDF76DFD95F8353002933E
:10BF10006B6A0B9A0599CDE900A348460023FFF709
:10BF2000BFFE814648B10BA8FDF785FE12A8FBF7BE
:10BF300012FE0EA8FBF70FFE5EE7DDE90B32D21A08
:10BF40009210012116A8FCF7D2FB012211464B46A4
:10BF50001AA8FCF7CCFB1AA916A8FCF7C5FDC8B9AE
:10BF60001A9B1B68F3601AA916A8FCF753FE98B930
:10BF70001A9B1B68099A33610B9B06F1140A134440
:10BF800051463A46A24209D253F8040B41F8040B39
:10BF90000132F7E70023E5E70023EBE71AA8FBF7F8
:10BFA000DAFD16A8FBF7D7FD0BA8FDF744FE95F8C0
:10BFB0003430002B4ED00699DFED329A9FED329A45
:10BFC0005046FCF771FF5346012206991AA8FCF768
:10BFD0008EFB0026DDE91B235343B34237D91A9B5E
:10BFE00003EB8609D9ED007AF0EEE77A17EE900AB6
:10BFF00016A980F0ADF807EE100AF0EE697AE7EEC8
:10C00000287A0136F0EE496AE7EE276ADFED1F7AFB
:10C01000E7EE267AB0EE677ADDED167AF8EEE77A8B
:10C0200077EE877A9FED1A7A67EE877AC9ED007A04
:10C03000D0E795F835300094CDE9011352463B46E0
:10C0400005994846FFF72CFE0028B0D088E01AA8D2
:10C05000FBF781FD089B12A80AEB0306FBF77BFDAB
:10C060000EA8FBF778FD0BF1010B59E0079BA6EB3F
:10C0700003094FEAA909BFE62A1B0C006C5A0B0002
:10C0800000000000F5CA83C0FBB3C040E09248C086
:10C090009B209A3E002C3FF4EAAE00244046FCF779
:10C0A00001FD00287FF4A7AE002C3FF4E0AEB6EE11
:10C0B000007A28EE077AD5ED067A6C6AF4EE477AB4
:10C0C000F1EE10FAC8BFF0EE477A07EE104AB8EE6C
:10C0D000477A67EE277AC7EE887A17EE900A7EF0E5
:10C0E00093FE00221F4B002E3FF4BAAE7EF02CFDD3
:10C0F0007FF0BAF96408471C08BF01270134E31B2D
:10C100000693DAF800300793E31B9B000893079E21
:10C110009FED158ADFED158ABB0009934FF0000BE8
:10C12000D8F804305B45A1D9D8F8083005934FEA18
:10C13000830AD8F80030059A0AFB0B394B460121D7
:10C140000EA8FCF7D4FA01221146334612A8FCF7D8
:10C15000CEFA12A90EA8FCF759FC00283FF48DAEC8
:10C160008146E3E60000E03FFFE6DB2EA8A19D3F0D
:10C170002DE9F04F2DED028BA9B09846BDF8D830CF
:10C1800002939DF8DC3004934E6843689DF8D470A8
:10C19000DDED388AB34282460D4608EE102A06D0FD
:10C1A000B14C204629B0BDEC028BBDE8F08F399B25
:10C1B00081685B680498012202EB40020BB1013BED
:10C1C0001A449142ECD1399B9B68012BE8D1284657
:10C1D000FCF768FC04460028E3D1B8F1010F13D145
:10C1E0003946DDED340AB0EE480A2846FCF7C4F8BB
:10C1F0000028D5D100230122314608A8FCF777FAA0
:10C20000089B6BB9994CE2E1B8F1020FF2D13946C3
:10C21000DDED340AB0EE480A2846FBF7E1FCE7E71B
:10C2200008A92846FCF7F2FB0446002840F0E1810B
:10C23000049A0346520031460CA8FCF758FA0C9BAE
:10C24000002B00F0D481029B5B0801330393029B17
:10C250005B10059326466B68B34240F2B581AA682D
:10C260002B6806FB02F103EB810310A80121FCF708
:10C270003EFA109B002B00F0B881039A00230121A5
:10C2800014A8FCF734FA149A002A00F0AA81029B41
:10C2900000931299169B1098FFF762FC074600283E
:10C2A00040F0A181DDED027AF8EE677AB0EE007A17
:10C2B000C7EE277A14A817EE901AFCF783FA3B46CC
:10C2C0000222049918A8FCF712FA189B002B00F020
:10C2D00086811599012901D0634C6CE11A9B022BD0
:10C2E000FAD1199B002B00F0D1803B46169A20A86A
:10C2F000FCF7FDF9209B002B00F03181B7EE007AAE
:10C30000C7EE087A059A002077EEA77AC7EE277A5B
:10C3100017EE901AFCF79AFD0746002840F0B0800F
:10C3200019990A2041430023012224A8FCF7DFF9D0
:10C330002498002800F00F81159B012B40F00D81FF
:10C34000269B012B40F00981149A1699DDF894E0A0
:10C35000F2EC017A01394FF000088B4280F04B81FA
:10C3600092ED007AB4EEE77AF1EE10FA03F1010CE7
:10C3700020DDD2ED016AB4EEE67AF1EE10FA19DDB5
:10C3800077EE677A37EE667A77EE877AF5EEC07ADF
:10C39000F1EE10FA0EDD07EE903A00EB880908F195
:10C3A0000108F8EEE77A1FFA88F8C645C9ED007A69
:10C3B00000F02181F2EC017A6346CEE7DDE91C89C9
:10C3C000C84523D0A9EB080B4FEAEB02B2FA82F280
:10C3D000C2F11F024FF00003520049464046FBF7EE
:10C3E00029FFBBF1800F0DDD08F1800B5946404657
:10C3F000FBF7B0FED94509D05846FBF792FE0BF18A
:10C40000080BF7E749464046FBF7A4FEDDE91C238D
:10C410009B1A4FEAE3081999414518D81A9B1C98B2
:10C420004FEA830C189B024604334FF0000E71450F
:10C4300002F108021ED052F8088C43F8048C52F81E
:10C44000048CC3F800800EF1010E6344EFE7DFEDCA
:10C45000087A06A91CA8CDED067ACDED077A08F179
:10C460000108FDF726FDD6E714FCFFFF16FCFFFFD1
:10C470000000000008B110F093F824A8FBF76BFB54
:10C4800020A8FBF768FB002F7FF426AF0023039A58
:10C4900001211CA8FCF72BF91C9B002B00F09D80B0
:10C4A0000023039A012120A8FCF721F9209B002BEF
:10C4B00000F09180029B009320AA18EE103A1CA96C
:10C4C00010A8FCF7E3FD074600286DD1399B596899
:10C4D00001220346013924A8FCF709F9249B002B0B
:10C4E0005ED08DED008A24AB399A20A91CA8FCF7F8
:10C4F00021FD0746002854D1DAF80820DAF8003088
:10C50000724303EB8202089B03EB860311461B6810
:10C5100041F8043BDDE919C39800189B0433BC457E
:10C5200001F108011DD125982699249B00EB4C00B0
:10C5300002EBCC07890002EB8002B2EE047ABA4229
:10C540001AD0D3ED006AC6EE877A0B4417EE900A34
:10C5500047F8040FF3E7434F8FE7434F8DE7414F11
:10C560008EE753F804EC41F808ECD3F800E041F80A
:10C5700004EC01370344D2E724A8FBF7ECFA20A827
:10C58000FBF7E9FA1CA8FBF7E6FA18A8FBF7E3FAB1
:10C5900014A8FBF7E0FA10A8FBF7DDFA01365AE61B
:10C5A000304F24A8FBF7D7FA20A8FBF7D4FA3C4673
:10C5B0001CA8FBF7D0FA18A8FBF7CDFA14A8FBF7D4
:10C5C000CAFA10A8FBF7C7FA0CA8FBF7C4FA08A828
:10C5D000FBF7C1FAE5E5234FE6E7224CE8E7214CFB
:10C5E000E9E7204CEAE7204CE8E71E4CE9E71D4C60
:10C5F000EAE71D4CEBE70023CDE91C331E93994677
:10C600005FFA89F34345BFF6D9AE249A02EB830360
:10C61000D3ED007A209AFCEEE77A1CA817EE901A68
:10C6200002EB810206A912680692D3ED007A149BF0
:10C63000FCEEE77A09F1010917EE902A03EB820379
:10C64000D3ED007AF4EEE78AF1EE10FACDED077A39
:10C65000C2BFDFED067ACDED067ACDED077AFDF7A4
:10C6600028FCCDE716FCFFFF14FCFFFF00000000D4
:10C670002DE9F04F8846ABB0D168074616469A467A
:10C68000FCF7A0F8044638B101464C480FF05AFFB9
:10C6900020462BB0BDE8F08FD7E901213868FCF7C0
:10C6A0004BF80446002870D17B683A897A609BB2C7
:10C6B0000DF11809BB600122034640214846FCF7F2
:10C6C00016F8802221460AA883F038FB356B2846ED
:10C6D00084F046FB7F28024668D829460AA883F0E2
:10C6E00005FB0AAD2B4613F8012B202A50D0284613
:10C6F00082F07CFE069B013403EB840B7EF0D4FEBB
:10C700004BF8040C15F8013B2C2B53D02B78002B45
:10C71000F8D1D6F828B007944FEA4B05002C39D150
:10C720000135D8E90131B2684B4305FB02F18B4278
:10C730003ED174692249C8E90125204684F006FBF0
:10C7400050B32049204684F001FB00280CBF02238F
:10C750000023F26A04925FFA8BF20392B28C029287
:10C76000327F0192B2690092CDF814905246394658
:10C770004046FFF7FDFC044680B1014612480FF029
:10C78000E1FE4846FBF7E7F982E701460F487DE7FF
:10C790001D46A7E72544C4E70123DAE7B3685D43F4
:10C7A0000123C8F80850C8F80430EAE7084CE8E765
:10C7B000084CE6E7002D95D1ABE700BFC9580B0048
:10C7C0002A1B0C006C5A0B00975A0B00715A0B0075
:10C7D00010FCFFFF14FCFFFF70B581422DED028BB2
:10C7E00004460E4625D0021D964222D01546B5ECD1
:10C7F000018AD4ED007AB4EEE78AF1EE10FA0AD598
:10C80000944204D0121B2146201D83F07DFA84ED52
:10C81000008A2A46E8E7134672ED017AB4EEE78A09
:10C82000F1EE10FA02D5C2ED017AF4E783ED008A49
:10C83000EFE7BDEC028B70BD07EE903A531E03EBA1
:10C84000D373F0B55D100B469D424FEA830416DDAD
:10C850005E1C73005F1E00EBC60600EB870C96EDB6
:10C86000007ADCED006AF4EE476AF1EE10FAC8BF18
:10C870003B4600EB8306044436682660E4E7D507B0
:10C880000CD4023A02EBD272B3EB620F06D15B001A
:10C89000013300EB83020444126822605A1E02EB4B
:10C8A000D2725210994200EB830410DA00EB82033B
:10C8B00093ED007AF4EEC77AF1EE10FA07DD531E1D
:10C8C00084ED007A03EBD37413466210EAE7C4EDFB
:10C8D000007AF0BD2DE9F743044617460D4600F1F6
:10C8E00004082B1B402B7FDD4FEAA3092FBBA9F1C6
:10C8F00002067610771C04EB87074FF0000257F80A
:10C90000043D8DF8002031464A462046FFF794FF4B
:10C910000EB1013EF1E72B1B042B65DD55F8043DFC
:10C9200022682A604FF000012A1B8DF80010921037
:10C9300000212046FFF780FFEDE7DB1004EB8303C7
:10C94000D4ED016A93ED007A55ED017A2268F4EE98
:10C95000C76AF1EE10FA07F1FF3712D5F4EEC77A85
:10C96000F1EE10FA03DD84ED007A1A6011E0F4EEC6
:10C97000E67AF1EE10FA09DDC4ED007A45F8042CF0
:10C9800007E0F4EEE67AF1EE10FA21DDC4ED006A7C
:10C990006260464629463246F2EC017AD4ED006ADE
:10C9A000F4EEE67AF1EE10FA1CD40B46043B93ED5C
:10C9B000007AF4EEC76AF1EE10FA1946F6D4B342E3
:10C9C0000CD829463A463046FFF784FF354688E7BB
:10C9D000F4EEC77AF1EE10FAC5DDCDE702ED017A8B
:10C9E000C3ED007A1646D6E703B0BDE8F083000039
:10C9F0002DE9F041D0E900378EB0FF1A064600233A
:10CA0000B8100192CDE9033305930C46FBF76DFB9B
:10CA100007440546CDE903000597D6E900702A468C
:10CA20003B46834204D053F8041B42F8041BF8E74A
:10CA3000DF1B05EB07084545CDF810802ED0BA1056
:10CA4000B2FA82F2C2F11F02520041462846FFF7B5
:10CA500041FF402F1CDD05F1400739464FF0000231
:10CA60002846FFF7B9FE3946414517D0D1ED007A87
:10CA70000B461A4633ED017AF4EEC77AF1EE10FA5E
:10CA800002D583ED017AF4E7C2ED007A0431EBE7D9
:10CA90004FF0000241462846FFF79EFE414903A899
:10CAA000FCF7D2FB0AA90A902046FEF775F84FF072
:10CAB0007A5103A8FCF7C8FB0AA90A902046FEF7A2
:10CAC0006BF84FF07D5103A8FCF7BEFB0AA90A9052
:10CAD0002046FEF761F8344903A8FCF7B5FB0AA924
